:020000040000FA
:060000003FEF01F01200C9
:0A000600020024030000880100003E
:10001000140000009C0200000001000088000000A5
:10002000D9CFE6FFE1CFD9FFFE0EDB50680A33E0FF
:100030000F0A2AE0010A23E0030A1CE0010A15E086
:10004000070A0EE0010A07E0030A31E18980000E89
:10005000E66E010E26D08990120EE66E010E21D0BA
:100060008982220EE66E010E1CD08992340EE66E55
:10007000010E17D08484440EE66E010E12D08494D3
:10008000560EE66E010E0DD0898089828484660E3C
:10009000E66E010E06D0899089928494780EE66E01
:1000A000010EE66ED7EC00F0E552E55203D08980F0
:1000B00089828494E552E7CFD9FF12008F0ED314C2
:1000C0006009D36E9B8CC1689290929296948990AD
:0600D000899284941200E5
:0A00D600060EF66E000EF76E000E27
:1000E000F86E01010900F550A16F0900F550A26FEB
:1000F00003E1A16701D03DD00900F5509C6F0900D4
:10010000F5509D6F0900F5509E6F09000900F550EC
:10011000E96E0900F550EA6E090009000900F55082
:100120009F6F0900F550A06F09000900F6CFA3F1F9
:10013000F7CFA4F1F8CFA5F19CC1F6FF9DC1F7FF61
:100140009EC1F8FF01019F5302E1A05307E009009F
:10015000F550EE6E9F07F8E2A007F9D7A3C1F6FFAE
:10016000A4C1F7FFA5C1F8FF0101A107000EA25B22
:04017000BFD71200E3
:0C017400948E949CAC6AAB6A200EAC6EBA
:10018000190EAF6E900EAB6EB86A120028D8E65208
:100190009EAAFED7AE50DF6E9E9ADF50E55224D065
:1001A0001ED8FE0EDB50AD6EACA2FED71DD017D808
:1001B000FD0EDBCFE9FFFE0EDBCFEAFFEF500EE0D6
:1001C000FD0EDBCFE9FFDB2AFE0EDBCFEAFF01E30A
:1001D000DB2AEF50E66EE4DFE552EAD705D0D9CF4F
:1001E000E6FFE1CFD9FF1200E552E7CFD9FF1200B9
:1001F000D9CFE6FFE1CFD9FFE652DF6A5EEC00F02F
:10020000BAEC00F0880EE66E010EE66ED7EC00F058
:10021000E552E552C6EC00F0DF6E640EE66E18ECB7
:1002200001F0E552DFCFE6FF10EC00F0E552EAD72F
:10023000FF0EE350036EEF0E01D0F30EE76EE72ED4
:100240001FEF01F00C0E026EE76AE72E25EF01F0BA
:0E025000022E24EF01F0032E1DEF01F012002C
:02025E00800E10
:10026000F36E00EE00F00F0E01D81200EA6002D02B
:0E027000EE6AFCD7F350E9601200EE6AFCD78C
:02027E001EEE72
:1002800000F02EEE00F0F86A019C6BEC00F04DECF3
:0A02900001F0F8EC00F0FBD71200BB
:02029A00120050
:04029C00204C454469
:1002A000203120456E63656E6469646F0D00204CDB
:1002B00045442031204170616761646F0D00204C1E
:1002C0004544203220456E63656E6469646F0D009D
:1002D000204C45442032204170616761646F0D00FD
:1002E000204C4544203320456E63656E6469646F1D
:1002F0000D00204C45442033204170616761646FDC
:100300000D00204C45447320456E63656E6469643E
:100310006F730D00204C4544732041706167616428
:040320006F730D00EA
:0C03240020496E6772657365206C65747B
:08033000726120612D680D00CF
:020000040030CA
:01000100C836
:0100020018E5
:010003001EDE
:010005008377
:010006008178
:010008000FE8
:01000900C036
:01000A000FE6
:01000B00E014
:01000C000FE4
:01000D0040B2
:00000001FF
